{
  "_format": "hh-sol-artifact-1",
  "contractName": "TokenSwap",
  "sourceName": "contracts/swap.sol",
  "abi": [
    {
      "inputs": [
        {
          "internalType": "contract IOneSplit",
          "name": "_oneSplitContract",
          "type": "address"
        }
      ],
      "stateMutability": "nonpayable",
      "type": "constructor"
    },
    {
      "inputs": [],
      "name": "oneSplitContract",
      "outputs": [
        {
          "internalType": "contract IOneSplit",
          "name": "",
          "type": "address"
        }
      ],
      "stateMutability": "view",
      "type": "function"
    },
    {
      "inputs": [
        {
          "internalType": "string",
          "name": "inTokenTicker",
          "type": "string"
        },
        {
          "internalType": "string",
          "name": "outTokenTicker",
          "type": "string"
        },
        {
          "internalType": "uint256",
          "name": "amount",
          "type": "uint256"
        },
        {
          "internalType": "uint256",
          "name": "maxSlippage",
          "type": "uint256"
        }
      ],
      "name": "swapTokens",
      "outputs": [],
      "stateMutability": "nonpayable",
      "type": "function"
    }
  ],
  "bytecode": "0x608060405234801561001057600080fd5b50604051610c5a380380610c5a833981810160405281019061003291906100ed565b806000806101000a81548173ffffffffffffffffffffffffffffffffffffffff021916908373ffffffffffffffffffffffffffffffffffffffff1602179055505061011a565b600080fd5b600073ffffffffffffffffffffffffffffffffffffffff82169050919050565b60006100a88261007d565b9050919050565b60006100ba8261009d565b9050919050565b6100ca816100af565b81146100d557600080fd5b50565b6000815190506100e7816100c1565b92915050565b60006020828403121561010357610102610078565b5b6000610111848285016100d8565b91505092915050565b610b31806101296000396000f3fe608060405234801561001057600080fd5b50600436106100365760003560e01c80632dcb33de1461003b5780636cbde05f14610057575b600080fd5b6100556004803603810190610050919061047f565b610075565b005b61005f6102c4565b60405161006c919061059d565b60405180910390f35b6000610080856102e8565b9050600061008d856102e8565b9050838273ffffffffffffffffffffffffffffffffffffffff166370a08231306040518263ffffffff1660e01b81526004016100c991906105d9565b602060405180830381865afa1580156100e6573d6000803e3d6000fd5b505050506040513d601f19601f8201168201806040525081019061010a9190610609565b101561014b576040517f08c379a000000000000000000000000000000000000000000000000000000000815260040161014290610693565b60405180910390fd5b60008060008054906101000a900473ffffffffffffffffffffffffffffffffffffffff1673ffffffffffffffffffffffffffffffffffffffff1663085e2c5b858589600a60006040518663ffffffff1660e01b81526004016101b1959493929190610759565b600060405180830381865afa1580156101ce573d6000803e3d6000fd5b505050506040513d6000823e3d601f19601f820116820180604052508101906101f79190610874565b915091506000606486606461020c91906108ff565b846102179190610933565b61022191906109a4565b905060008054906101000a900473ffffffffffffffffffffffffffffffffffffffff1673ffffffffffffffffffffffffffffffffffffffff1663e2a7515e86868a858760006040518763ffffffff1660e01b815260040161028796959493929190610a93565b600060405180830381600087803b1580156102a157600080fd5b505af11580156102b5573d6000803e3d6000fd5b50505050505050505050505050565b60008054906101000a900473ffffffffffffffffffffffffffffffffffffffff1681565b6000919050565b6000604051905090565b600080fd5b600080fd5b600080fd5b600080fd5b6000601f19601f8301169050919050565b7f4e487b7100000000000000000000000000000000000000000000000000000000600052604160045260246000fd5b6103568261030d565b810181811067ffffffffffffffff821117156103755761037461031e565b5b80604052505050565b60006103886102ef565b9050610394828261034d565b919050565b600067ffffffffffffffff8211156103b4576103b361031e565b5b6103bd8261030d565b9050602081019050919050565b82818337600083830152505050565b60006103ec6103e784610399565b61037e565b90508281526020810184848401111561040857610407610308565b5b6104138482856103ca565b509392505050565b600082601f8301126104305761042f610303565b5b81356104408482602086016103d9565b91505092915050565b6000819050919050565b61045c81610449565b811461046757600080fd5b50565b60008135905061047981610453565b92915050565b60008060008060808587031215610499576104986102f9565b5b600085013567ffffffffffffffff8111156104b7576104b66102fe565b5b6104c38782880161041b565b945050602085013567ffffffffffffffff8111156104e4576104e36102fe565b5b6104f08782880161041b565b93505060406105018782880161046a565b92505060606105128782880161046a565b91505092959194509250565b600073ffffffffffffffffffffffffffffffffffffffff82169050919050565b6000819050919050565b600061056361055e6105598461051e565b61053e565b61051e565b9050919050565b600061057582610548565b9050919050565b60006105878261056a565b9050919050565b6105978161057c565b82525050565b60006020820190506105b2600083018461058e565b92915050565b60006105c38261051e565b9050919050565b6105d3816105b8565b82525050565b60006020820190506105ee60008301846105ca565b92915050565b60008151905061060381610453565b92915050565b60006020828403121561061f5761061e6102f9565b5b600061062d848285016105f4565b91505092915050565b600082825260208201905092915050565b7f4e6f7420656e6f75676820746f6b656e2062616c616e63650000000000000000600082015250565b600061067d601883610636565b915061068882610647565b602082019050919050565b600060208201905081810360008301526106ac81610670565b9050919050565b60006106be8261056a565b9050919050565b6106ce816106b3565b82525050565b6106dd81610449565b82525050565b6000819050919050565b60006107086107036106fe846106e3565b61053e565b610449565b9050919050565b610718816106ed565b82525050565b6000819050919050565b600061074361073e6107398461071e565b61053e565b610449565b9050919050565b61075381610728565b82525050565b600060a08201905061076e60008301886106c5565b61077b60208301876106c5565b61078860408301866106d4565b610795606083018561070f565b6107a2608083018461074a565b9695505050505050565b600067ffffffffffffffff8211156107c7576107c661031e565b5b602082029050602081019050919050565b600080fd5b60006107f06107eb846107ac565b61037e565b90508083825260208201905060208402830185811115610813576108126107d8565b5b835b8181101561083c578061082888826105f4565b845260208401935050602081019050610815565b5050509392505050565b600082601f83011261085b5761085a610303565b5b815161086b8482602086016107dd565b91505092915050565b6000806040838503121561088b5761088a6102f9565b5b6000610899858286016105f4565b925050602083015167ffffffffffffffff8111156108ba576108b96102fe565b5b6108c685828601610846565b9150509250929050565b7f4e487b7100000000000000000000000000000000000000000000000000000000600052601160045260246000fd5b600061090a82610449565b915061091583610449565b925082820390508181111561092d5761092c6108d0565b5b92915050565b600061093e82610449565b915061094983610449565b925082820261095781610449565b9150828204841483151761096e5761096d6108d0565b5b5092915050565b7f4e487b7100000000000000000000000000000000000000000000000000000000600052601260045260246000fd5b60006109af82610449565b91506109ba83610449565b9250826109ca576109c9610975565b5b828204905092915050565b600081519050919050565b600082825260208201905092915050565b6000819050602082019050919050565b610a0a81610449565b82525050565b6000610a1c8383610a01565b60208301905092915050565b6000602082019050919050565b6000610a40826109d5565b610a4a81856109e0565b9350610a55836109f1565b8060005b83811015610a86578151610a6d8882610a10565b9750610a7883610a28565b925050600181019050610a59565b5085935050505092915050565b600060c082019050610aa860008301896106c5565b610ab560208301886106c5565b610ac260408301876106d4565b610acf60608301866106d4565b8181036080830152610ae18185610a35565b9050610af060a083018461074a565b97965050505050505056fea264697066735822122078f4069b43ae394cb84cee0b8ca7e59d0c0bfedba8c4324c598dea570530f65464736f6c63430008120033",
  "linkReferences": {},
  "deployedLinkReferences": {}
}